:020000040800F2
:1000000000040020BD000008EB000008ED0000081F
:1000100000000000000000000000000000000000E0
:10002000000000000000000000000000EF000008D9
:100030000000000000000000F1000008F3000008CC
:10004000F5000008F5000008F5000008F5000008BC
:10005000F5000008F5000008F5000008F5000008AC
:10006000F5000008F5000008F5000008F50000089C
:10007000F5000008F5000008F5000008F50000088C
:10008000F5000008F500000800000000F500000879
:10009000F5000008F5000008F5000008F50000086C
:1000A000F5000008F5000008F5000008F50000085C
:1000B000F500000800000000F5000008C0460E48EA
:1000C0000E4901600E480F4901600F480F49016059
:1000D0000F48104901601048401EFDD10C480F49DF
:1000E00001600D48401EFDD1F2E7FEE7FEE7FEE7A6
:1000F000FEE7FEE7FEE700001C10024000000010D3
:100100001410024014000800000800480000040019
:10011000140800480002000000350C000000000038
:04000005080000BD32
:00000001FF
